{
  "contractName": "ZKVerifier",
  "abi": [
    {
      "anonymous": false,
      "inputs": [
        {
          "indexed": true,
          "internalType": "address",
          "name": "user",
          "type": "address"
        },
        {
          "indexed": false,
          "internalType": "bool",
          "name": "success",
          "type": "bool"
        }
      ],
      "name": "ProofVerified",
      "type": "event"
    },
    {
      "anonymous": false,
      "inputs": [
        {
          "indexed": true,
          "internalType": "address",
          "name": "user",
          "type": "address"
        },
        {
          "indexed": false,
          "internalType": "bytes32",
          "name": "hashedSecret",
          "type": "bytes32"
        }
      ],
      "name": "SecretStored",
      "type": "event"
    },
    {
      "inputs": [
        {
          "internalType": "bytes32",
          "name": "_hashedSecret",
          "type": "bytes32"
        }
      ],
      "name": "storeSecret",
      "outputs": [],
      "stateMutability": "nonpayable",
      "type": "function"
    },
    {
      "inputs": [
        {
          "internalType": "uint256",
          "name": "_secret",
          "type": "uint256"
        }
      ],
      "name": "verifySecret",
      "outputs": [
        {
          "internalType": "bool",
          "name": "",
          "type": "bool"
        }
      ],
      "stateMutability": "view",
      "type": "function",
      "constant": true
    },
    {
      "inputs": [],
      "name": "hasStoredSecret",
      "outputs": [
        {
          "internalType": "bool",
          "name": "",
          "type": "bool"
        }
      ],
      "stateMutability": "view",
      "type": "function",
      "constant": true
    }
  ],
  "bytecode": "0x608060405234801561001057600080fd5b506103a1806100206000396000f3fe608060405234801561001057600080fd5b50600436106100405760003560e01c8062622851146100455780631331d30614610061578063551fb20414610091575b600080fd5b61005f600480360381019061005a919061023f565b6100af565b005b61007b600480360381019061007691906102a2565b610143565b60405161008891906102ea565b60405180910390f35b6100996101b8565b6040516100a691906102ea565b60405180910390f35b806000803373ffffffffffffffffffffffffffffffffffffffff1673ffffffffffffffffffffffffffffffffffffffff168152602001908152602001600020819055503373ffffffffffffffffffffffffffffffffffffffff167f52c4262918816904d80eee4840122a6e59bb475026f80edecd0abe2bc5e103e2826040516101389190610314565b60405180910390a250565b600080826040516020016101579190610350565b604051602081830303815290604052805190602001209050806000803373ffffffffffffffffffffffffffffffffffffffff1673ffffffffffffffffffffffffffffffffffffffff1681526020019081526020016000205414915050919050565b60008060001b6000803373ffffffffffffffffffffffffffffffffffffffff1673ffffffffffffffffffffffffffffffffffffffff168152602001908152602001600020541415905090565b600080fd5b6000819050919050565b61021c81610209565b811461022757600080fd5b50565b60008135905061023981610213565b92915050565b60006020828403121561025557610254610204565b5b60006102638482850161022a565b91505092915050565b6000819050919050565b61027f8161026c565b811461028a57600080fd5b50565b60008135905061029c81610276565b92915050565b6000602082840312156102b8576102b7610204565b5b60006102c68482850161028d565b91505092915050565b60008115159050919050565b6102e4816102cf565b82525050565b60006020820190506102ff60008301846102db565b92915050565b61030e81610209565b82525050565b60006020820190506103296000830184610305565b92915050565b6000819050919050565b61034a6103458261026c565b61032f565b82525050565b600061035c8284610339565b6020820191508190509291505056fea2646970667358221220e3e5c66f21a98e33e20f48b7e3e7adb1cc4a619859b94f13a7033e4983e64a5c64736f6c63430008130033",
  "immutableReferences": {},
  "source": "// SPDX-License-Identifier: MIT\r\npragma solidity ^0.8.19;\r\n\r\ncontract ZKVerifier {\r\n    // Events\r\n    event SecretStored(address indexed user, bytes32 hashedSecret);\r\n    event ProofVerified(address indexed user, bool success);\r\n    \r\n    // Storage\r\n    mapping(address => bytes32) private hashedSecrets;\r\n    \r\n    // Store a secret hash\r\n    function storeSecret(bytes32 _hashedSecret) public {\r\n        hashedSecrets[msg.sender] = _hashedSecret;\r\n        emit SecretStored(msg.sender, _hashedSecret);\r\n    }\r\n    \r\n    // Verify a secret\r\n    function verifySecret(uint256 _secret) public view returns (bool) {\r\n        bytes32 hashedInput = keccak256(abi.encodePacked(_secret));\r\n        return hashedSecrets[msg.sender] == hashedInput;\r\n    }\r\n    \r\n    // Check if user has a stored secret\r\n    function hasStoredSecret() public view returns (bool) {\r\n        return hashedSecrets[msg.sender] != bytes32(0);\r\n    }\r\n}\r\n",
  "sourcePath": "C:\\Users\\Sarthak\\Desktop\\Blockchain College\\Distrubuted Ledger\\Zk-proof\\contracts\\ZKVerifier.sol",
  "compiler": {
    "name": "solc",
    "version": "0.8.19+commit.7dd6d404.Emscripten.clang"
  },
  "schemaVersion": "3.4.16",
  "updatedAt": "2024-11-17T13:32:28.340Z",
  "networkType": "ethereum",
  "devdoc": {
    "kind": "dev",
    "methods": {},
    "version": 1
  },
  "userdoc": {
    "kind": "user",
    "methods": {},
    "version": 1
  }
}